:02000000972E39
:1000080070082000A10080312E008C1E13288C124D
:100018002000BE0A3E08643A031D13280B26200060
:060028002108F0000900B0
:0C002E00000000000000000000000800BE
:0A003A005330FD00FD0B1F280800E5
:100044002430FC00B530FD00FD0B2628FC0B2628CF
:060054000000000008009E
:10005A007B14FB1F3828F201FA1FFF30F200F1006F
:0A006A00F000FA0DF20CFF30080060
:100074002100D01B402820008D12422820008D161C
:100084002100501B482820000D124A2820000D167C
:100094002100D01A502820008D11522820008D15DF
:1000A4002100501A582820000D115A2820000D153F
:1000B4006B185E280D145F280D108D1417208D10F9
:1000C4002100D019682820008D126A2820008D167E
:1000D40021005019702820000D12722820000D16DE
:1000E4002100D018782820008D117A2820008D1541
:1000F40021005018802820000D11822820000D15A1
:100104006B1886280D1487280D108D1417208D1058
:0C0114006B1C8E2822208F281D20080064
:10012000FB14FB1F9A28FF30F300F200F100F000EF
:08013000FA0DF20CFF3008008B
:100138007B15FB1FA6280130F300F201F101F00145
:08014800FA0DF20CFF30080073
:0E015000F201F101F001F801F30100300800A6
:08015E00FA1FF2130030080043
:10016600DC2827008D018C01EE282700FF308D004A
:10017600FF308C00EE2821004E08F0004F08F100F9
:10018600F136F00CF136F00CFF30700527008D00CB
:100196002100CE1CD12827008C17D32827008C13CA
:1001A60021004E1CD92827000C17DB2827000C132A
:1001B600EE28003020003806031DE32800303706FD
:1001C6000319B42800303806031DEB2864303706BF
:0801D6000319B828BE28080037
:1001DE00A0017208031D04297108F2007008F100D5
:1001EE00F001A0157208031D04297108F200F10137
:1001FE00A01120167208031912292008F302031DFC
:10020E00031C16290310F21B1A29F00DF10DF20D25
:10021E00F30B0A2916290130FC00A8201D290230F3
:0E022E00FC009C201D290430FC00AF200800BD
:10023C002000F801F9011030FC00710DF80DF90DDA
:10024C007408F8027508031C750FF9020318352998
:10025C007408F80775080318750FF9070310F00DEB
:08026C00F10DFC0B2329080031
:100274002000FB017308031D7708031990297208F5
:100284007606FA007708F3077E30031C4D29F30243
:10029400031893295029F302031C96297208F800C5
:1002A4007108FC007008FD00F817F6170310F2013E
:1002B400F101F0011830A0007D1C6A297408F007D0
:1002C40075080318750FF10776080318760FF207FF
:1002D400F20CF10CF00CF80CFC0CFD0C0310A00B50
:1002E4005E29F21B7A29F80DF00DF10DF20DF303DE
:1002F4007B1B701C8C29F81F8C29F00A0319F10A46
:100304000319F20A031D8C29F20CF10CF00CF30A08
:1003140003199329FA1FF213003098290130A820F9
:10032400982902309020982904309C20000008006D
:100334002000FB0173080319D6297208FA00F2178A
:100344008E30F302F31FD929F309F30A083073023C
:10035400031CBC29F300F10D7208F100F20108300E
:100364007302031CBC29F300F10DF1017308031D92
:100374000310C42973080319C4290310F20CF10CE7
:10038400F30BBF297B1B711CCE29031CCE29F10A58
:100394000319F20AF21BE529FA1FE829F209F10907
:1003A400F10A0319F20AE829F201F101E8297B14A0
:1003B400FB1FEB29F201FA1FEB29FF30F200F100D9
:1003C400FA0DF20CEB290130FC00ED290030FC00A1
:1003D400ED29FF30FC00FC080319F1292D207108D8
:0803E400F0007208F1000800AE
:1003EC00710DF80DF90D7408F8027508031C750FE2
:1003FC00F902F00DF10D0F30FC00710DF80DF90D37
:10040C007408701C0F2AF8027508031C750FF9028A
:10041C00142AF80775080318750FF907F00DF10D7C
:10042C00FC0B032A7018202A7408F80775080318A7
:08043C00750FF907000008002C
:1004440020006B1021004E08D0003A206B140800E5
:100454007408003A031D372A7508003A031D372A29
:10046400FF30F0007F30F1008F2A2000FD01F901F8
:10047400F801710870040319003471087506FA0054
:10048400FA1BFD09FB01F51F4C2AF409F509F40ACE
:100494000319F50AF11F532AF009F109F00A0319A7
:1004A400F10A71087504FA00FA1B682AF6217B1810
:1004B4007B2AFD1F0034F009F109F00A0319F10A3F
:1004C400F809F909F80A0319F90A0034F51F772A1B
:1004D400F11B732A7108F9007008F800F101F001AA
:1004E4005B2AF101F001F00A0034F109F009FB0A7A
:1004F400582AF80A0319F90A74087802031D5B2ABA
:1005040075087902031D5B2AF901F801F00A031941
:0C051400F10AF11F5B2A0000FF34080010
:1005200020007008F8007108F000F101F201F301F9
:10053000FB01FC019630F300FA01F01FA52AF8092F
:10054000F009F80A0319F00AFA177008F1007808A0
:0A055000F000F801F201EF200800AE
:10055A00C72A25000E178E120E12F02A25000E1336
:10056A008E160E16F02A25000E138E160E12F02A7B
:10057A0025000E138E120E16F02A25000E138E1267
:10058A000E12F02A003020006D06031DCE2A01301B
:10059A006C060319AE2A00306D06031DD62A0230F6
:1005AA006C060319B32A00306D06031DDE2A0330D8
:1005BA006C060319B82A00306D06031DE62A0430BA
:1005CA006C060319BD2A00306D06031DEE2A05309C
:0805DA006C060319C22A080097
:1005E2002100CB011030F4002730F50020006C0808
:1005F200F0006D08F1001E2170082100CC00710886
:10060200CD004C082000EE001030F4002730F50039
:100612006C08F0006D08F1001E217808F0007908DE
:10062200F100E830F4000330F5001E217008EF00FD
:10063200E830F4000330F5006C08F0006D08F100BA
:100642001E217808F0007908F1006430F4000030CF
:10065200F5001E2170082100C8006430F40000304B
:10066200F50020006C08F0006D08F1001E217808EA
:10067200F0007908F1000A30F4000030F5001E2184
:1006820070082100C9000A30F4000030F500200093
:100692006C08F0006D08F1001E217808F00079085E
:1006A200F10070082100CA004C08031D642B4B089E
:1006B200031D642B0730FC007D30FD00FD0B5F2B1A
:1006C200FC0B5F2B6D2B303020006E072100CE001B
:1006D200222201302100CB0020006F08031D7E2B57
:1006E20021004B08031D7E2B0730FC007D30FD00EE
:1006F200FD0B792BFC0B792B872B303020006F07F9
:100702002100CE00222201302100CB004808031D27
:10071200962B4B08031D962B0730FC007D30FD0005
:10072200FD0B912BFC0B912B9D2B30304807CE00FB
:10073200222201302100CB004908031DAC2B4B08BB
:10074200031DAC2B0730FC007D30FD00FD0BA72BF9
:10075200FC0BA72BB32B30304907CE0022220130ED
:0E0762002100CB0030304A07CE0022220800D2
:10077000C92B80302000EC00DB2BC030EC00DB2BE1
:100780009430EC00DB2BD430EC00DB2B8030EC0021
:10079000DB2B20006C08013A0319B92B6C08023AD4
:1007A0000319BD2B6C08033A0319C02B6C08043ADB
:1007B0000319C32BC62B6D03F0006C08F0077008FB
:1007C000EC0070082100D0003A206B102100C80115
:1007D000480820006E07840000306F3D8500000847
:1007E0000319012C2100480820006E078400003006
:1007F0006F3D850000082100CE0022222100C80A9A
:08080000E82B20006B14080036
:1008080020006C08F0006D08F1006E08F2006F0817
:10081800F3001430F400AE30F5002330F6008230D7
:10082800F7003A219A2170082100CE007108CF0004
:04083800B3200800E1
:10083C0020008C19222C39150C1D3A2C391D3A2C00
:10084C0039110530FB009130FC00CF30FD00FD0B61
:10085C002D2CFC0B2D2CFB0B2D2C0000000022084A
:0A086C000130031D0030A200080057
:1008760020000C193F2CB9140C1D612CB91C612CDD
:10088600B9100530FB009130FC00CF30FD00FD0BA8
:100896004A2CFC0B4A2CFB0B4A2C000000003A08A1
:1008A60003195B2CBA0127008E1320001315612C47
:0E08B6000130BA0027008E1720001311080031
:1008C400200026083806031D692C37082506031D59
:1008D400742C24083606031D712C35082306031DC9
:1008E400742C8B2C0A30F4000030F5003508F0002D
:1008F4003608F1002A223708F0073808F13D902223
:100904007008EC007108ED007208EE007308EF0047
:0409140004240800AF
:1009180020000C1A902C39140C1EB82C391CB82C39
:1009280039100530FB009130FC00CF30FD00FD0B85
:100938009B2CFC0B9B2CFB0B9B2C0000000000301D
:100948003C02031DA92C05303B020318AF2CBB0A3F
:100958000319BC0AB32C0130BB000030BC003B08B3
:0A096800EC003C08ED00AD22080091
:1009720001302000EC000230ED002D30EE0000309E
:10098200EF00B82380303806F00080307002031D7B
:10099200CC2C0A3037020318D22C20302100CE0092
:1009A200222280303806F00080307002031DDB2CDA
:1009B200643037020318E12C20302100CE002222BD
:1009C2003708EC003808ED00F1222E302100CE006D
:1009D20022223508EC003608ED00F12225302100F4
:1009E200CE00222220302100CE002222220803192A
:1009F200FF2C01302100CE002222032D20302100C5
:100A0200CE0022220230EC000230ED002730EE0050
:100A12000030EF00B8233F2D0230EC000730ED002C
:100A2200A030EE000030EF00B823672D0230EC005A
:100A32000730ED006130EE000030EF00B823672D83
:100A42000230EC000730ED00AA30EE000030EF007B
:100A5200B823672D0230EC000730ED00BE30EE0007
:100A62000030EF00B823672D0230EC000730ED00B4
:100A7200B430EE000030EF00B823672D00303C06A2
:100A8200031D452D01303B0603190D2D00303C0698
:100A9200031D4D2D02303B060319172D00303C0675
:100AA200031D552D03303B060319212D00303C0652
:100AB200031D5D2D04303B0603192B2D00303C062F
:100AC200031D652D05303B060319352D3A08031920
:100AD2006E2D2100CE012222722D20302100CE0067
:040AE20022220800C4
:100AE60012001E00F003031D732DF103031D732D69
:020AF6000800F6
:100AF80020009210121012119211121292128D10DF
:100B08000D108D120D128D110D1122202220222080
:100B18008D150D158D1417208D1022208D1417207A
:100B28008D1022208D1417208D1022200D118D1468
:100B380017208D1022208D1417208D108D118D16E1
:100B48008D1417208D1022208D120D158D1417204D
:100B58008D100D118D1417208D1022208D14172043
:100B68008D100D158D1417208D1022200D118D1448
:100B780017208D108D160D168D150D158D14172037
:080B88008D1022206B140800FF
:100B900040302100D0003A201F302100CE00222218
:100BA00011302100CE0022221B302100CE00222253
:100BB0001B302100CE0022221B302100CE00222239
:100BC0001B302100CE0022221F302100CE00222225
:100BD0002100CE0122221F302100CE00222211301E
:100BE0002100CE00222217302100CE002222133015
:100BF0002100CE00222217302100CE002222173001
:100C00002100CE0022221F302100CE00222221000E
:060C1000CE0122220800C3
:100C160020000E18522E3D08031D512E0130BD0036
:100C260022080319412E80303606F000803070020B
:100C3600031D1F2E093035020318302E803038066A
:100C4600F00080307002031D2A2E6430370203182C
:100C5600302EB50A0319B60A402E80303806F00049
:100C660080307002031D392E643037020318402E7F
:100C7600B70A0319B80AB501B601512EB501B60176
:100C860080303806F00080307002031D4C2E643030
:100C960037020318512EB70A0319B80A912E8E1877
:100CA600912E3D08031D912E0130BD002208031927
:100CB600802E8030F000803036067002031D652ECF
:100CC6003508003C03186C2E0130B5020030B63BE7
:100CD6007F2E8030F000803038067002031D752E9E
:100CE6003708003C03187F2E0130B7020030B83BAE
:100CF6000930B5000030B600912EB501B60180303E
:100D0600F000803038067002031D8B2E3708003C39
:100D16000318912E0130B7020030B83B0E1C962EF8
:080D26008E1C962EBD01080091
:100D2E008C27200011119111111292013E00B80171
:100D3E00C301CE0120008D0127000E12FF302500C9
:100D4E008D000E303E00A2002E00901025000E17D2
:100D5E008E120E128E17013090002E008C128030E3
:100D6E0020009E0040309F00C0308B009C012E0062
:100D7E0096160A30F4000030F50020003508F00019
:100D8E003608F1002A223708F0073808F13D902284
:100D9E007008EC007108ED007208EE007308EF00A9
:100DAE00042420003B08EC003C08ED00AD227C251D
:100DBE00C82501302100D0003A200C302100D0008F
:100DCE003A200130EC000130ED005030EE000030E2
:100DDE00EF00B8230230EC000130ED003F30EE00A2
:100DEE000030EF00B8234D30FB001930FC004F30BF
:100DFE00FD00FD0B002FFC0B002FFB0B002F000046
:100E0E000000B9248C2462243B241E240730FC00ED
:100E1E007D30FD00FD0B112FFC0B112F082F162F0F
:100F18001A308400873085004930F0000130F10034
:100F280022308600003087007325633084008730C4
:100F380085002830F0000130F100A0308600003034
:060F48008700732508007C
:020E3400013487
:040E36000034003450
:040E3A00003400344C
:0C0E3E00463472346534713420340034C2
:100E4A0044347534743479342034203420340034F2
:040E5A00003400342C
:040E5E0032340034F6
:020E620000345A
:020E6400003458
:040E6600013400341F
:020E6A00013451
:020E6C00003450
:100E6E0020343534203446347234653471342E34A3
:100E7E002F34313430346234693474347334203462
:020E8E0000342E
:100E900020342034503457344D34203447346534B2
:100EA0006E342034763432342E34303420342034CE
:020EB00000340C
:100EB200203432342E34343434344B3448347A349B
:040EC20020340034A4
:100EC600203431342E34323432344B3448347A348C
:040ED6002034003490
:100EDA00203434342E34383438344B3448347A3469
:040EEA00203400347C
:100EEE00313439342E34353433344B3448347A3447
:040EFE002034003468
:100F0200203439342E34373436344B3448347A343E
:040F12002034003453
:020000040001F9
:0A000E007229212E1F3F031003008A
:00000001FF
